{
  "_format": "hh-sol-artifact-1",
  "contractName": "PairFlash",
  "sourceName": "contracts/v3/uniswapV3DoubleFlashDirect.sol",
  "abi": [
    {
      "inputs": [
        {
          "internalType": "contract ISwapRouter",
          "name": "_swapRouter",
          "type": "address"
        },
        {
          "internalType": "address",
          "name": "_factory",
          "type": "address"
        },
        {
          "internalType": "address",
          "name": "_WETH9",
          "type": "address"
        }
      ],
      "stateMutability": "nonpayable",
      "type": "constructor"
    },
    {
      "inputs": [],
      "name": "WETH9",
      "outputs": [
        {
          "internalType": "address",
          "name": "",
          "type": "address"
        }
      ],
      "stateMutability": "view",
      "type": "function"
    },
    {
      "inputs": [],
      "name": "factory",
      "outputs": [
        {
          "internalType": "address",
          "name": "",
          "type": "address"
        }
      ],
      "stateMutability": "view",
      "type": "function"
    },
    {
      "inputs": [
        {
          "components": [
            {
              "internalType": "address",
              "name": "token0",
              "type": "address"
            },
            {
              "internalType": "address",
              "name": "token1",
              "type": "address"
            },
            {
              "internalType": "uint24",
              "name": "fee1",
              "type": "uint24"
            },
            {
              "internalType": "uint256",
              "name": "amount0",
              "type": "uint256"
            },
            {
              "internalType": "uint256",
              "name": "amount1",
              "type": "uint256"
            },
            {
              "internalType": "uint24",
              "name": "fee2",
              "type": "uint24"
            },
            {
              "internalType": "uint24",
              "name": "fee3",
              "type": "uint24"
            }
          ],
          "internalType": "struct PairFlash.FlashParams",
          "name": "params",
          "type": "tuple"
        }
      ],
      "name": "initFlash",
      "outputs": [],
      "stateMutability": "nonpayable",
      "type": "function"
    },
    {
      "inputs": [],
      "name": "refundETH",
      "outputs": [],
      "stateMutability": "payable",
      "type": "function"
    },
    {
      "inputs": [],
      "name": "swapRouter",
      "outputs": [
        {
          "internalType": "contract ISwapRouter",
          "name": "",
          "type": "address"
        }
      ],
      "stateMutability": "view",
      "type": "function"
    },
    {
      "inputs": [
        {
          "internalType": "address",
          "name": "token",
          "type": "address"
        },
        {
          "internalType": "uint256",
          "name": "amountMinimum",
          "type": "uint256"
        },
        {
          "internalType": "address",
          "name": "recipient",
          "type": "address"
        }
      ],
      "name": "sweepToken",
      "outputs": [],
      "stateMutability": "payable",
      "type": "function"
    },
    {
      "inputs": [
        {
          "internalType": "uint256",
          "name": "fee0",
          "type": "uint256"
        },
        {
          "internalType": "uint256",
          "name": "fee1",
          "type": "uint256"
        },
        {
          "internalType": "bytes",
          "name": "data",
          "type": "bytes"
        }
      ],
      "name": "uniswapV3FlashCallback",
      "outputs": [],
      "stateMutability": "nonpayable",
      "type": "function"
    },
    {
      "inputs": [
        {
          "internalType": "uint256",
          "name": "amountMinimum",
          "type": "uint256"
        },
        {
          "internalType": "address",
          "name": "recipient",
          "type": "address"
        }
      ],
      "name": "unwrapWETH9",
      "outputs": [],
      "stateMutability": "payable",
      "type": "function"
    },
    {
      "stateMutability": "payable",
      "type": "receive"
    }
  ],
  "bytecode": "0x60e06040523480156200001157600080fd5b50604051620016173803806200161783398101604081905262000034916200006a565b6001600160a01b03918216608052811660a0521660c052620000be565b6001600160a01b03811681146200006757600080fd5b50565b6000806000606084860312156200008057600080fd5b83516200008d8162000051565b6020850151909350620000a08162000051565b6040850151909250620000b38162000051565b809150509250925092565b60805160a05160c0516114d66200014160003960008181610191015281816105fb015281816106260152818161067701526107d3015260008181608f01528181610141015281816103930152818161046901528181610d2701528181610d6d0152610e020152600081816101c50152818161027501526105ba01526114d66000f3fe60806040526004361061007f5760003560e01c8063c31c9c071161004e578063c31c9c071461017f578063c45a0155146101b3578063df2ab5bb146101e7578063e9cbafb0146101fa57600080fd5b806312210e8a146100f45780632384463b146100fc57806349404b7c1461011c5780634aa4a4fc1461012f57600080fd5b366100ef57336001600160a01b037f000000000000000000000000000000000000000000000000000000000000000016146100ed5760405162461bcd60e51b81526020600482015260096024820152684e6f7420574554483960b81b60448201526064015b60405180910390fd5b005b600080fd5b6100ed61021a565b34801561010857600080fd5b506100ed610117366004611061565b61022c565b6100ed61012a366004611111565b61037b565b34801561013b57600080fd5b506101637f000000000000000000000000000000000000000000000000000000000000000081565b6040516001600160a01b03909116815260200160405180910390f35b34801561018b57600080fd5b506101637f000000000000000000000000000000000000000000000000000000000000000081565b3480156101bf57600080fd5b506101637f000000000000000000000000000000000000000000000000000000000000000081565b6100ed6101f536600461113d565b6104dc565b34801561020657600080fd5b506100ed610215366004611179565b6105a5565b471561022a5761022a3347610920565b565b6000604051806060016040528083600001516001600160a01b0316815260200183602001516001600160a01b03168152602001836040015162ffffff168152509050600061029a7f0000000000000000000000000000000000000000000000000000000000000000836109c3565b9050806001600160a01b031663490e6cbc30856060015186608001516040518060c001604052808960600151815260200189608001518152602001336001600160a01b031681526020018881526020018960a0015162ffffff1681526020018960c0015162ffffff1681525060405160200161031691906111f9565b6040516020818303038152906040526040518563ffffffff1660e01b8152600401610344949392919061129d565b600060405180830381600087803b15801561035e57600080fd5b505af1158015610372573d6000803e3d6000fd5b50505050505050565b6040516370a0823160e01b81523060048201526000907f00000000000000000000000000000000000000000000000000000000000000006001600160a01b0316906370a0823190602401602060405180830381865afa1580156103e2573d6000803e3d6000fd5b505050506040513d601f19601f8201168201806040525081019061040691906112ed565b90508281101561044d5760405162461bcd60e51b8152602060048201526012602482015271496e73756666696369656e7420574554483960701b60448201526064016100e4565b80156104d757604051632e1a7d4d60e01b8152600481018290527f00000000000000000000000000000000000000000000000000000000000000006001600160a01b031690632e1a7d4d90602401600060405180830381600087803b1580156104b557600080fd5b505af11580156104c9573d6000803e3d6000fd5b505050506104d78282610920565b505050565b6040516370a0823160e01b81523060048201526000906001600160a01b038516906370a0823190602401602060405180830381865afa158015610523573d6000803e3d6000fd5b505050506040513d601f19601f8201168201806040525081019061054791906112ed565b90508281101561058e5760405162461bcd60e51b815260206004820152601260248201527124b739bab33334b1b4b2b73a103a37b5b2b760711b60448201526064016100e4565b801561059f5761059f848383610ab4565b50505050565b60006105b382840184611306565b90506105e37f00000000000000000000000000000000000000000000000000000000000000008260600151610bb4565b506060810151805160209091015182516106209083907f000000000000000000000000000000000000000000000000000000000000000090610c11565b61064f817f00000000000000000000000000000000000000000000000000000000000000008560200151610c11565b600061065f846020015188610d0a565b9050600061067185600001518a610d0a565b905060007f00000000000000000000000000000000000000000000000000000000000000006001600160a01b031663414bf389604051806101000160405280876001600160a01b03168152602001886001600160a01b03168152602001896080015162ffffff168152602001306001600160a01b031681526020014281526020018960200151815260200185815260200160006001600160a01b03168152506040518263ffffffff1660e01b815260040161072c91906113bd565b6020604051808303816000875af115801561074b573d6000803e3d6000fd5b505050506040513d601f19601f8201168201806040525081019061076f91906112ed565b60408051610100810182526001600160a01b038881168252878116602083015260a08a81015162ffffff16838501523060608401524260808401528a519083015260c08201879052600060e08301819052925163414bf38960e01b815293945091927f00000000000000000000000000000000000000000000000000000000000000009092169163414bf38991610808916004016113bd565b6020604051808303816000875af1158015610827573d6000803e3d6000fd5b505050506040513d601f19601f8201168201806040525081019061084b91906112ed565b9050600061085d88600001518d610d0a565b9050600061086f89602001518d610d0a565b905061087c883084610c11565b610887873083610c11565b81156108995761089988303385610d25565b80156108ab576108ab87303384610d25565b818411156108de5760006108bf8584610ea5565b90506108cc893083610c11565b6108dc89308c6040015184610d25565b505b808311156109115760006108f28483610ea5565b90506108ff893083610c11565b61090f88308c6040015184610d25565b505b50505050505050505050505050565b604080516000808252602082019092526001600160a01b03841690839060405161094a9190611426565b60006040518083038185875af1925050503d8060008114610987576040519150601f19603f3d011682016040523d82523d6000602084013e61098c565b606091505b50509050806104d75760405162461bcd60e51b815260206004820152600360248201526253544560e81b60448201526064016100e4565b600081602001516001600160a01b031682600001516001600160a01b0316106109eb57600080fd5b815160208084015160408086015181516001600160a01b0395861681860152949092168482015262ffffff90911660608085019190915281518085038201815260808501909252815191909201206001600160f81b031960a08401529085901b6bffffffffffffffffffffffff191660a183015260b58201527fe34f199b19b2b4f47f68442619d555527d244f78a3297ea89325f843f87b8b5460d5820152610aad9060f5016040516020818303038152906040528051906020012060001c90565b9392505050565b604080516001600160a01b038481166024830152604480830185905283518084039091018152606490920183526020820180516001600160e01b031663a9059cbb60e01b1790529151600092839290871691610b109190611426565b6000604051808303816000865af19150503d8060008114610b4d576040519150601f19603f3d011682016040523d82523d6000602084013e610b52565b606091505b5091509150818015610b7c575080511580610b7c575080806020019051810190610b7c9190611442565b610bad5760405162461bcd60e51b815260206004820152600260248201526114d560f21b60448201526064016100e4565b5050505050565b6000610bc083836109c3565b9050336001600160a01b03821614610c0b5760405162461bcd60e51b815260206004820152600e60248201526d24b73b30b634b21039b2b73232b960911b60448201526064016100e4565b92915050565b604080516001600160a01b038481166024830152604480830185905283518084039091018152606490920183526020820180516001600160e01b031663095ea7b360e01b1790529151600092839290871691610c6d9190611426565b6000604051808303816000865af19150503d8060008114610caa576040519150601f19603f3d011682016040523d82523d6000602084013e610caf565b606091505b5091509150818015610cd9575080511580610cd9575080806020019051810190610cd99190611442565b610bad5760405162461bcd60e51b8152602060048201526002602482015261534160f01b60448201526064016100e4565b600082610d17838261147a565b9150811015610c0b57600080fd5b7f00000000000000000000000000000000000000000000000000000000000000006001600160a01b0316846001600160a01b0316148015610d665750804710155b15610e79577f00000000000000000000000000000000000000000000000000000000000000006001600160a01b031663d0e30db0826040518263ffffffff1660e01b81526004016000604051808303818588803b158015610dc657600080fd5b505af1158015610dda573d6000803e3d6000fd5b505060405163a9059cbb60e01b81526001600160a01b038681166004830152602482018690527f000000000000000000000000000000000000000000000000000000000000000016935063a9059cbb925060440190506020604051808303816000875af1158015610e4f573d6000803e3d6000fd5b505050506040513d601f19601f82011682018060405250810190610e739190611442565b5061059f565b306001600160a01b03841603610e9957610e94848383610ab4565b61059f565b61059f84848484610ec0565b600082610eb2838261148d565b9150811115610c0b57600080fd5b604080516001600160a01b0385811660248301528481166044830152606480830185905283518084039091018152608490920183526020820180516001600160e01b03166323b872dd60e01b1790529151600092839290881691610f249190611426565b6000604051808303816000865af19150503d8060008114610f61576040519150601f19603f3d011682016040523d82523d6000602084013e610f66565b606091505b5091509150818015610f90575080511580610f90575080806020019051810190610f909190611442565b610fc25760405162461bcd60e51b815260206004820152600360248201526229aa2360e91b60448201526064016100e4565b505050505050565b60405160c0810167ffffffffffffffff81118282101715610ffb57634e487b7160e01b600052604160045260246000fd5b60405290565b6040516060810167ffffffffffffffff81118282101715610ffb57634e487b7160e01b600052604160045260246000fd5b80356001600160a01b038116811461104957600080fd5b919050565b803562ffffff8116811461104957600080fd5b600060e0828403121561107357600080fd5b60405160e0810181811067ffffffffffffffff821117156110a457634e487b7160e01b600052604160045260246000fd5b6040526110b083611032565b81526110be60208401611032565b60208201526110cf6040840161104e565b604082015260608301356060820152608083013560808201526110f460a0840161104e565b60a082015261110560c0840161104e565b60c08201529392505050565b6000806040838503121561112457600080fd5b8235915061113460208401611032565b90509250929050565b60008060006060848603121561115257600080fd5b61115b84611032565b92506020840135915061117060408501611032565b90509250925092565b6000806000806060858703121561118f57600080fd5b8435935060208501359250604085013567ffffffffffffffff808211156111b557600080fd5b818701915087601f8301126111c957600080fd5b8135818111156111d857600080fd5b8860208285010111156111ea57600080fd5b95989497505060200194505050565b81518152602080830151818301526040808401516001600160a01b03908116828501526060808601518051831691860191909152928301511660808085019190915291015162ffffff1660a083015282015161010082019061126260c084018262ffffff169052565b5060a0929092015162ffffff1660e0919091015290565b60005b8381101561129457818101518382015260200161127c565b50506000910152565b60018060a01b038516815283602082015282604082015260806060820152600082518060808401526112d68160a0850160208701611279565b601f01601f19169190910160a00195945050505050565b6000602082840312156112ff57600080fd5b5051919050565b600081830361010081121561131a57600080fd5b611322610fca565b833581526020840135602082015261133c60408501611032565b60408201526060605f198301121561135357600080fd5b61135b611001565b915061136960608501611032565b825261137760808501611032565b602083015261138860a0850161104e565b604083015281606082015261139f60c0850161104e565b60808201526113b060e0850161104e565b60a0820152949350505050565b81516001600160a01b03908116825260208084015182169083015260408084015162ffffff16908301526060808401518216908301526080808401519083015260a0838101519083015260c0808401519083015260e09283015116918101919091526101000190565b60008251611438818460208701611279565b9190910192915050565b60006020828403121561145457600080fd5b81518015158114610aad57600080fd5b634e487b7160e01b600052601160045260246000fd5b80820180821115610c0b57610c0b611464565b81810381811115610c0b57610c0b61146456fea26469706673582212203dbfa2d1c282c9bdd4e946fb963390e1cdba7eeb985876173e8d5cd4a2330db964736f6c63430008140033",
  "linkReferences": {},
  "deployedLinkReferences": {}
}