{
  "_format": "hh-sol-artifact-1",
  "contractName": "PairFlash",
  "sourceName": "contracts/v3/UniswapV3SingleFlashMulti.sol",
  "abi": [
    {
      "inputs": [
        {
          "internalType": "contract ISwapRouter",
          "name": "_swapRouter",
          "type": "address"
        },
        {
          "internalType": "address",
          "name": "_factory",
          "type": "address"
        },
        {
          "internalType": "address",
          "name": "_WETH9",
          "type": "address"
        }
      ],
      "stateMutability": "nonpayable",
      "type": "constructor"
    },
    {
      "inputs": [],
      "name": "WETH9",
      "outputs": [
        {
          "internalType": "address",
          "name": "",
          "type": "address"
        }
      ],
      "stateMutability": "view",
      "type": "function"
    },
    {
      "inputs": [],
      "name": "factory",
      "outputs": [
        {
          "internalType": "address",
          "name": "",
          "type": "address"
        }
      ],
      "stateMutability": "view",
      "type": "function"
    },
    {
      "inputs": [
        {
          "components": [
            {
              "internalType": "address",
              "name": "token0",
              "type": "address"
            },
            {
              "internalType": "address",
              "name": "token1",
              "type": "address"
            },
            {
              "internalType": "uint24",
              "name": "fee1",
              "type": "uint24"
            },
            {
              "internalType": "uint256",
              "name": "amount0",
              "type": "uint256"
            },
            {
              "internalType": "uint256",
              "name": "amount1",
              "type": "uint256"
            },
            {
              "internalType": "uint24",
              "name": "fee2",
              "type": "uint24"
            }
          ],
          "internalType": "struct PairFlash.FlashParams",
          "name": "params",
          "type": "tuple"
        }
      ],
      "name": "initFlash",
      "outputs": [],
      "stateMutability": "nonpayable",
      "type": "function"
    },
    {
      "inputs": [],
      "name": "refundETH",
      "outputs": [],
      "stateMutability": "payable",
      "type": "function"
    },
    {
      "inputs": [],
      "name": "swapRouter",
      "outputs": [
        {
          "internalType": "contract ISwapRouter",
          "name": "",
          "type": "address"
        }
      ],
      "stateMutability": "view",
      "type": "function"
    },
    {
      "inputs": [
        {
          "internalType": "address",
          "name": "token",
          "type": "address"
        },
        {
          "internalType": "uint256",
          "name": "amountMinimum",
          "type": "uint256"
        },
        {
          "internalType": "address",
          "name": "recipient",
          "type": "address"
        }
      ],
      "name": "sweepToken",
      "outputs": [],
      "stateMutability": "payable",
      "type": "function"
    },
    {
      "inputs": [
        {
          "internalType": "uint256",
          "name": "fee0",
          "type": "uint256"
        },
        {
          "internalType": "uint256",
          "name": "fee1",
          "type": "uint256"
        },
        {
          "internalType": "bytes",
          "name": "data",
          "type": "bytes"
        }
      ],
      "name": "uniswapV3FlashCallback",
      "outputs": [],
      "stateMutability": "nonpayable",
      "type": "function"
    },
    {
      "inputs": [
        {
          "internalType": "uint256",
          "name": "amountMinimum",
          "type": "uint256"
        },
        {
          "internalType": "address",
          "name": "recipient",
          "type": "address"
        }
      ],
      "name": "unwrapWETH9",
      "outputs": [],
      "stateMutability": "payable",
      "type": "function"
    },
    {
      "stateMutability": "payable",
      "type": "receive"
    }
  ],
  "bytecode": "0x60e060405234801561001057600080fd5b506040516200145a3803806200145a83398101604081905261003191610065565b6001600160a01b03918216608052811660a0521660c0526100b2565b6001600160a01b038116811461006257600080fd5b50565b60008060006060848603121561007a57600080fd5b83516100858161004d565b60208501519093506100968161004d565b60408501519092506100a78161004d565b809150509250925092565b60805160a05160c05161132c6200012e6000396000818161019101528181610649015281816106740152610773015260008181608f01528181610121015281816102440152818161031a01528181610c8901528181610ccf0152610d640152600081816101c5015281816103d60152610608015261132c6000f3fe60806040526004361061007f5760003560e01c8063c31c9c071161004e578063c31c9c071461017f578063c45a0155146101b3578063df2ab5bb146101e7578063e9cbafb0146101fa57600080fd5b806312210e8a146100f457806349404b7c146100fc5780634aa4a4fc1461010f578063a1aeb7dc1461015f57600080fd5b366100ef57336001600160a01b037f000000000000000000000000000000000000000000000000000000000000000016146100ed5760405162461bcd60e51b81526020600482015260096024820152684e6f7420574554483960b81b60448201526064015b60405180910390fd5b005b600080fd5b6100ed61021a565b6100ed61010a366004610f48565b61022c565b34801561011b57600080fd5b506101437f000000000000000000000000000000000000000000000000000000000000000081565b6040516001600160a01b03909116815260200160405180910390f35b34801561016b57600080fd5b506100ed61017a366004610fef565b61038d565b34801561018b57600080fd5b506101437f000000000000000000000000000000000000000000000000000000000000000081565b3480156101bf57600080fd5b506101437f000000000000000000000000000000000000000000000000000000000000000081565b6100ed6101f536600461108e565b61052a565b34801561020657600080fd5b506100ed6102153660046110ca565b6105f3565b471561022a5761022a3347610882565b565b6040516370a0823160e01b81523060048201526000907f00000000000000000000000000000000000000000000000000000000000000006001600160a01b0316906370a0823190602401602060405180830381865afa158015610293573d6000803e3d6000fd5b505050506040513d601f19601f820116820180604052508101906102b7919061114a565b9050828110156102fe5760405162461bcd60e51b8152602060048201526012602482015271496e73756666696369656e7420574554483960701b60448201526064016100e4565b801561038857604051632e1a7d4d60e01b8152600481018290527f00000000000000000000000000000000000000000000000000000000000000006001600160a01b031690632e1a7d4d90602401600060405180830381600087803b15801561036657600080fd5b505af115801561037a573d6000803e3d6000fd5b505050506103888282610882565b505050565b6000604051806060016040528083600001516001600160a01b0316815260200183602001516001600160a01b03168152602001836040015162ffffff16815250905060006103fb7f000000000000000000000000000000000000000000000000000000000000000083610925565b9050806001600160a01b031663490e6cbc30856060015186608001516040518060a001604052808960600151815260200189608001518152602001336001600160a01b031681526020018881526020018960a0015162ffffff168152506040516020016104c5919081518152602080830151818301526040808401516001600160a01b03908116828501526060808601518051831691860191909152928301511660808085019190915291015162ffffff90811660a084015292015190911660c082015260e00190565b6040516020818303038152906040526040518563ffffffff1660e01b81526004016104f39493929190611187565b600060405180830381600087803b15801561050d57600080fd5b505af1158015610521573d6000803e3d6000fd5b50505050505050565b6040516370a0823160e01b81523060048201526000906001600160a01b038516906370a0823190602401602060405180830381865afa158015610571573d6000803e3d6000fd5b505050506040513d601f19601f82011682018060405250810190610595919061114a565b9050828110156105dc5760405162461bcd60e51b815260206004820152601260248201527124b739bab33334b1b4b2b73a103a37b5b2b760711b60448201526064016100e4565b80156105ed576105ed848383610a16565b50505050565b6000610601828401846111d7565b90506106317f00000000000000000000000000000000000000000000000000000000000000008260600151610b16565b5060608101518051602090910151825161066e9083907f000000000000000000000000000000000000000000000000000000000000000090610b73565b61069d817f00000000000000000000000000000000000000000000000000000000000000008560200151610b73565b60006106ad846020015188610c6c565b905060006106bf85600001518a610c6c565b60408051610100810182526001600160a01b03868116825287811660208084019182526080808c015162ffffff908116868801908152306060880190815242938801938452938e015160a0880190815260c088018a8152600060e08a018181529a5163414bf38960e01b81529951891660048b01529651881660248a015291519092166044880152925185166064870152905160848601525160a48501525160c48401529251811660e483015292935090917f0000000000000000000000000000000000000000000000000000000000000000169063414bf38990610104016020604051808303816000875af11580156107bd573d6000803e3d6000fd5b505050506040513d601f19601f820116820180604052508101906107e1919061114a565b905060006107f387600001518c610c6c565b9050600061080588602001518c610c6c565b9050610812873084610b73565b61081d863083610b73565b811561082f5761082f87303385610c87565b80156108415761084186303384610c87565b818311156108745760006108558484610e07565b9050610862883083610b73565b61087288308b6040015184610c87565b505b505050505050505050505050565b604080516000808252602082019092526001600160a01b0384169083906040516108ac919061127c565b60006040518083038185875af1925050503d80600081146108e9576040519150601f19603f3d011682016040523d82523d6000602084013e6108ee565b606091505b50509050806103885760405162461bcd60e51b815260206004820152600360248201526253544560e81b60448201526064016100e4565b600081602001516001600160a01b031682600001516001600160a01b03161061094d57600080fd5b815160208084015160408086015181516001600160a01b0395861681860152949092168482015262ffffff90911660608085019190915281518085038201815260808501909252815191909201206001600160f81b031960a08401529085901b6bffffffffffffffffffffffff191660a183015260b58201527fe34f199b19b2b4f47f68442619d555527d244f78a3297ea89325f843f87b8b5460d5820152610a0f9060f5016040516020818303038152906040528051906020012060001c90565b9392505050565b604080516001600160a01b038481166024830152604480830185905283518084039091018152606490920183526020820180516001600160e01b031663a9059cbb60e01b1790529151600092839290871691610a72919061127c565b6000604051808303816000865af19150503d8060008114610aaf576040519150601f19603f3d011682016040523d82523d6000602084013e610ab4565b606091505b5091509150818015610ade575080511580610ade575080806020019051810190610ade9190611298565b610b0f5760405162461bcd60e51b815260206004820152600260248201526114d560f21b60448201526064016100e4565b5050505050565b6000610b228383610925565b9050336001600160a01b03821614610b6d5760405162461bcd60e51b815260206004820152600e60248201526d24b73b30b634b21039b2b73232b960911b60448201526064016100e4565b92915050565b604080516001600160a01b038481166024830152604480830185905283518084039091018152606490920183526020820180516001600160e01b031663095ea7b360e01b1790529151600092839290871691610bcf919061127c565b6000604051808303816000865af19150503d8060008114610c0c576040519150601f19603f3d011682016040523d82523d6000602084013e610c11565b606091505b5091509150818015610c3b575080511580610c3b575080806020019051810190610c3b9190611298565b610b0f5760405162461bcd60e51b8152602060048201526002602482015261534160f01b60448201526064016100e4565b600082610c7983826112d0565b9150811015610b6d57600080fd5b7f00000000000000000000000000000000000000000000000000000000000000006001600160a01b0316846001600160a01b0316148015610cc85750804710155b15610ddb577f00000000000000000000000000000000000000000000000000000000000000006001600160a01b031663d0e30db0826040518263ffffffff1660e01b81526004016000604051808303818588803b158015610d2857600080fd5b505af1158015610d3c573d6000803e3d6000fd5b505060405163a9059cbb60e01b81526001600160a01b038681166004830152602482018690527f000000000000000000000000000000000000000000000000000000000000000016935063a9059cbb925060440190506020604051808303816000875af1158015610db1573d6000803e3d6000fd5b505050506040513d601f19601f82011682018060405250810190610dd59190611298565b506105ed565b306001600160a01b03841603610dfb57610df6848383610a16565b6105ed565b6105ed84848484610e22565b600082610e1483826112e3565b9150811115610b6d57600080fd5b604080516001600160a01b0385811660248301528481166044830152606480830185905283518084039091018152608490920183526020820180516001600160e01b03166323b872dd60e01b1790529151600092839290881691610e86919061127c565b6000604051808303816000865af19150503d8060008114610ec3576040519150601f19603f3d011682016040523d82523d6000602084013e610ec8565b606091505b5091509150818015610ef2575080511580610ef2575080806020019051810190610ef29190611298565b610f245760405162461bcd60e51b815260206004820152600360248201526229aa2360e91b60448201526064016100e4565b505050505050565b80356001600160a01b0381168114610f4357600080fd5b919050565b60008060408385031215610f5b57600080fd5b82359150610f6b60208401610f2c565b90509250929050565b60405160a0810167ffffffffffffffff81118282101715610fa557634e487b7160e01b600052604160045260246000fd5b60405290565b6040516060810167ffffffffffffffff81118282101715610fa557634e487b7160e01b600052604160045260246000fd5b803562ffffff81168114610f4357600080fd5b600060c0828403121561100157600080fd5b60405160c0810181811067ffffffffffffffff8211171561103257634e487b7160e01b600052604160045260246000fd5b60405261103e83610f2c565b815261104c60208401610f2c565b602082015261105d60408401610fdc565b6040820152606083013560608201526080830135608082015261108260a08401610fdc565b60a08201529392505050565b6000806000606084860312156110a357600080fd5b6110ac84610f2c565b9250602084013591506110c160408501610f2c565b90509250925092565b600080600080606085870312156110e057600080fd5b8435935060208501359250604085013567ffffffffffffffff8082111561110657600080fd5b818701915087601f83011261111a57600080fd5b81358181111561112957600080fd5b88602082850101111561113b57600080fd5b95989497505060200194505050565b60006020828403121561115c57600080fd5b5051919050565b60005b8381101561117e578181015183820152602001611166565b50506000910152565b60018060a01b038516815283602082015282604082015260806060820152600082518060808401526111c08160a0850160208701611163565b601f01601f19169190910160a00195945050505050565b600081830360e08112156111ea57600080fd5b6111f2610f74565b833581526020840135602082015261120c60408501610f2c565b60408201526060605f198301121561122357600080fd5b61122b610fab565b915061123960608501610f2c565b825261124760808501610f2c565b602083015261125860a08501610fdc565b604083015281606082015261126f60c08501610fdc565b6080820152949350505050565b6000825161128e818460208701611163565b9190910192915050565b6000602082840312156112aa57600080fd5b81518015158114610a0f57600080fd5b634e487b7160e01b600052601160045260246000fd5b80820180821115610b6d57610b6d6112ba565b81810381811115610b6d57610b6d6112ba56fea2646970667358221220da0c8f081bda441d9b7f41cb8767c96bdd73eb2e0c4cee08d64bf836cba5831964736f6c63430008140033",
  "linkReferences": {},
  "deployedLinkReferences": {}
}