{
    "contractName": "Arbitrager",
    "abi": [
        {
            "inputs": [
                {
                    "internalType": "address",
                    "name": "_sFactory",
                    "type": "address"
                },
                {
                    "internalType": "address",
                    "name": "_uRouter",
                    "type": "address"
                }
            ],
            "stateMutability": "nonpayable",
            "type": "constructor"
        },
        {
            "inputs": [
                {
                    "internalType": "address",
                    "name": "_sender",
                    "type": "address"
                },
                {
                    "internalType": "uint256",
                    "name": "_amount0",
                    "type": "uint256"
                },
                {
                    "internalType": "uint256",
                    "name": "_amount1",
                    "type": "uint256"
                },
                {
                    "internalType": "bytes",
                    "name": "_data",
                    "type": "bytes"
                }
            ],
            "name": "uniswapV2Call",
            "outputs": [],
            "stateMutability": "nonpayable",
            "type": "function"
        }
    ],
    "bytecode": "0x60c060405234801561001057600080fd5b50604051610eab380380610eab8339818101604052604081101561003357600080fd5b8101908080519060200190929190805190602001909291905050508173ffffffffffffffffffffffffffffffffffffffff1660808173ffffffffffffffffffffffffffffffffffffffff1660601b815250508073ffffffffffffffffffffffffffffffffffffffff1660a08173ffffffffffffffffffffffffffffffffffffffff1660601b81525050505060805160601c60a05160601c610dba6100f16000398061029b52806103f452806108a85280610a01525050610dba6000f3fe608060405234801561001057600080fd5b506004361061002b5760003560e01c806310d1e85c14610030575b600080fd5b6100db6004803603608081101561004657600080fd5b81019080803573ffffffffffffffffffffffffffffffffffffffff16906020019092919080359060200190929190803590602001909291908035906020019064010000000081111561009757600080fd5b8201836020820111156100a957600080fd5b803590602001918460018302840111640100000000831117156100cb57600080fd5b90919293919293905050506100dd565b005b6060600267ffffffffffffffff811180156100f757600080fd5b506040519080825280602002602001820160405280156101265781602001602082028036833780820191505090505b5090506000808484604081101561013c57600080fd5b81019080803590602001909291908035906020019092919050505091509150600087141561077157600086905060003373ffffffffffffffffffffffffffffffffffffffff16630dfe16816040518163ffffffff1660e01b815260040160206040518083038186803b1580156101b157600080fd5b505afa1580156101c5573d6000803e3d6000fd5b505050506040513d60208110156101db57600080fd5b8101908080519060200190929190505050905060003373ffffffffffffffffffffffffffffffffffffffff1663d21220a76040518163ffffffff1660e01b815260040160206040518083038186803b15801561023657600080fd5b505afa15801561024a573d6000803e3d6000fd5b505050506040513d602081101561026057600080fd5b81019080805190602001909291905050509050600081905060008390508173ffffffffffffffffffffffffffffffffffffffff1663095ea7b37f0000000000000000000000000000000000000000000000000000000000000000876040518363ffffffff1660e01b8152600401808373ffffffffffffffffffffffffffffffffffffffff1673ffffffffffffffffffffffffffffffffffffffff16815260200182815260200192505050602060405180830381600087803b15801561032457600080fd5b505af1158015610338573d6000803e3d6000fd5b505050506040513d602081101561034e57600080fd5b810190808051906020019092919050505050828860008151811061036e57fe5b602002602001019073ffffffffffffffffffffffffffffffffffffffff16908173ffffffffffffffffffffffffffffffffffffffff168152505083886001815181106103b657fe5b602002602001019073ffffffffffffffffffffffffffffffffffffffff16908173ffffffffffffffffffffffffffffffffffffffff168152505060007f000000000000000000000000000000000000000000000000000000000000000073ffffffffffffffffffffffffffffffffffffffff166338ed17398760008c308c6040518663ffffffff1660e01b815260040180868152602001858152602001806020018473ffffffffffffffffffffffffffffffffffffffff1673ffffffffffffffffffffffffffffffffffffffff168152602001838152602001828103825285818151815260200191508051906020019060200280838360005b838110156104ca5780820151818401526020810190506104af565b505050509050019650505050505050600060405180830381600087803b1580156104f357600080fd5b505af1158015610507573d6000803e3d6000fd5b505050506040513d6000823e3d601f19601f82011682018060405250602081101561053157600080fd5b810190808051604051939291908464010000000082111561055157600080fd5b8382019150602082018581111561056757600080fd5b825186602082028301116401000000008211171561058457600080fd5b8083526020830192505050908051906020019060200280838360005b838110156105bb5780820151818401526020810190506105a0565b505050509050016040525050506001815181106105d457fe5b602002602001015190508173ffffffffffffffffffffffffffffffffffffffff1663a9059cbb338a6040518363ffffffff1660e01b8152600401808373ffffffffffffffffffffffffffffffffffffffff1673ffffffffffffffffffffffffffffffffffffffff16815260200182815260200192505050602060405180830381600087803b15801561066557600080fd5b505af1158015610679573d6000803e3d6000fd5b505050506040513d602081101561068f57600080fd5b8101908080519060200190929190505050508173ffffffffffffffffffffffffffffffffffffffff1663a9059cbb8f8a84036040518363ffffffff1660e01b8152600401808373ffffffffffffffffffffffffffffffffffffffff1673ffffffffffffffffffffffffffffffffffffffff16815260200182815260200192505050602060405180830381600087803b15801561072a57600080fd5b505af115801561073e573d6000803e3d6000fd5b505050506040513d602081101561075457600080fd5b810190808051906020019092919050505050505050505050610d7a565b600087905060003373ffffffffffffffffffffffffffffffffffffffff16630dfe16816040518163ffffffff1660e01b815260040160206040518083038186803b1580156107be57600080fd5b505afa1580156107d2573d6000803e3d6000fd5b505050506040513d60208110156107e857600080fd5b8101908080519060200190929190505050905060003373ffffffffffffffffffffffffffffffffffffffff1663d21220a76040518163ffffffff1660e01b815260040160206040518083038186803b15801561084357600080fd5b505afa158015610857573d6000803e3d6000fd5b505050506040513d602081101561086d57600080fd5b81019080805190602001909291905050509050600082905060008290508173ffffffffffffffffffffffffffffffffffffffff1663095ea7b37f0000000000000000000000000000000000000000000000000000000000000000876040518363ffffffff1660e01b8152600401808373ffffffffffffffffffffffffffffffffffffffff1673ffffffffffffffffffffffffffffffffffffffff16815260200182815260200192505050602060405180830381600087803b15801561093157600080fd5b505af1158015610945573d6000803e3d6000fd5b505050506040513d602081101561095b57600080fd5b810190808051906020019092919050505050838860008151811061097b57fe5b602002602001019073ffffffffffffffffffffffffffffffffffffffff16908173ffffffffffffffffffffffffffffffffffffffff168152505082886001815181106109c357fe5b602002602001019073ffffffffffffffffffffffffffffffffffffffff16908173ffffffffffffffffffffffffffffffffffffffff168152505060007f000000000000000000000000000000000000000000000000000000000000000073ffffffffffffffffffffffffffffffffffffffff166338ed17398760008c308c6040518663ffffffff1660e01b815260040180868152602001858152602001806020018473ffffffffffffffffffffffffffffffffffffffff1673ffffffffffffffffffffffffffffffffffffffff168152602001838152602001828103825285818151815260200191508051906020019060200280838360005b83811015610ad7578082015181840152602081019050610abc565b505050509050019650505050505050600060405180830381600087803b158015610b0057600080fd5b505af1158015610b14573d6000803e3d6000fd5b505050506040513d6000823e3d601f19601f820116820180604052506020811015610b3e57600080fd5b8101908080516040519392919084640100000000821115610b5e57600080fd5b83820191506020820185811115610b7457600080fd5b8251866020820283011164010000000082111715610b9157600080fd5b8083526020830192505050908051906020019060200280838360005b83811015610bc8578082015181840152602081019050610bad565b50505050905001604052505050600181518110610be157fe5b602002602001015190508173ffffffffffffffffffffffffffffffffffffffff1663a9059cbb338a6040518363ffffffff1660e01b8152600401808373ffffffffffffffffffffffffffffffffffffffff1673ffffffffffffffffffffffffffffffffffffffff16815260200182815260200192505050602060405180830381600087803b158015610c7257600080fd5b505af1158015610c86573d6000803e3d6000fd5b505050506040513d6020811015610c9c57600080fd5b8101908080519060200190929190505050508173ffffffffffffffffffffffffffffffffffffffff1663a9059cbb8f8a84036040518363ffffffff1660e01b8152600401808373ffffffffffffffffffffffffffffffffffffffff1673ffffffffffffffffffffffffffffffffffffffff16815260200182815260200192505050602060405180830381600087803b158015610d3757600080fd5b505af1158015610d4b573d6000803e3d6000fd5b505050506040513d6020811015610d6157600080fd5b8101908080519060200190929190505050505050505050505b505050505050505056fea264697066735822122021739b5f5f581f06af82f1db09835ceba297c056633461bde5ad25058b40daed64736f6c63430006060033",
    "immutableReferences": {
        "8": [
            {
                "length": 32,
                "start": 667
            },
            {
                "length": 32,
                "start": 1012
            },
            {
                "length": 32,
                "start": 2216
            },
            {
                "length": 32,
                "start": 2561
            }
        ]
    },
    "source": "pragma solidity ^0.8.19;\n\nimport \"@uniswap/v2-periphery/contracts/interfaces/IUniswapV2Router02.sol\";\nimport \"@uniswap/v2-core/contracts/interfaces/IUniswapV2Pair.sol\";\nimport \"@uniswap/v2-core/contracts/interfaces/IERC20.sol\";\n\ncontract Arbitrager {\n    address immutable sFactory;\n    IUniswapV2Router02 immutable uRouter;\n\n    constructor(address _sFactory, address _uRouter) public {\n        sFactory = _sFactory;\n        uRouter = IUniswapV2Router02(_uRouter);\n    }\n\n    function uniswapV2Call(\n        address _sender,\n        uint256 _amount0,\n        uint256 _amount1,\n        bytes calldata _data\n    ) external {\n        address[] memory path = new address[](2);\n        (uint256 amountRequired, uint256 deadline) = abi.decode(\n            _data,\n            (uint256, uint256)\n        );\n        if (_amount0 == 0) {\n            uint256 amountEntryToken = _amount1;\n            address token0 = IUniswapV2Pair(msg.sender).token0();\n            address token1 = IUniswapV2Pair(msg.sender).token1();\n            IERC20 entryToken = IERC20(token1);\n            IERC20 exitToken = IERC20(token0);\n            entryToken.approve(address(uRouter), amountEntryToken);\n            path[0] = token1;\n            path[1] = token0;\n            uint256 amountReceived = uRouter.swapExactTokensForTokens(\n                amountEntryToken,\n                0,\n                path,\n                address(this),\n                deadline\n            )[1];\n            exitToken.transfer(msg.sender, amountRequired);\n            exitToken.transfer(_sender, amountReceived - amountRequired);\n        } else {\n            uint256 amountEntryToken = _amount0;\n            address token0 = IUniswapV2Pair(msg.sender).token0();\n            address token1 = IUniswapV2Pair(msg.sender).token1();\n            IERC20 entryToken = IERC20(token0);\n            IERC20 exitToken = IERC20(token1);\n            entryToken.approve(address(uRouter), amountEntryToken);\n            path[0] = token0;\n            path[1] = token1;\n            uint256 amountReceived = uRouter.swapExactTokensForTokens(\n                amountEntryToken,\n                0,\n                path,\n                address(this),\n                deadline\n            )[1];\n            exitToken.transfer(msg.sender, amountRequired);\n            exitToken.transfer(_sender, amountReceived - amountRequired);\n        }\n    }\n}\n",
    "sourcePath": "/mnt/d/code/arbitrage/polybot6eerv2v2/src/contracts/Arbitrager.sol",
    "compiler": {
        "name": "solc",
        "version": "0.6.6+commit.6c089d02.Emscripten.clang"
    },
    "schemaVersion": "3.4.1",
    "updatedAt": "2022-11-16T00:04:38.428Z",
    "devdoc": {
        "methods": {}
    },
    "userdoc": {
        "methods": {}
    }
}