{
  "_format": "hh-sol-artifact-1",
  "contractName": "flashMulti",
  "sourceName": "contracts/v2/flashMulti.sol",
  "abi": [
    {
      "inputs": [
        {
          "internalType": "address",
          "name": "_owner",
          "type": "address"
        }
      ],
      "stateMutability": "nonpayable",
      "type": "constructor"
    },
    {
      "anonymous": false,
      "inputs": [
        {
          "indexed": false,
          "internalType": "string",
          "name": "message",
          "type": "string"
        }
      ],
      "name": "log",
      "type": "event"
    },
    {
      "anonymous": false,
      "inputs": [
        {
          "indexed": false,
          "internalType": "string",
          "name": "message",
          "type": "string"
        },
        {
          "indexed": false,
          "internalType": "address",
          "name": "val",
          "type": "address"
        }
      ],
      "name": "logAddress",
      "type": "event"
    },
    {
      "anonymous": false,
      "inputs": [
        {
          "indexed": false,
          "internalType": "string",
          "name": "message",
          "type": "string"
        },
        {
          "indexed": false,
          "internalType": "uint256",
          "name": "val",
          "type": "uint256"
        }
      ],
      "name": "logValue",
      "type": "event"
    },
    {
      "inputs": [],
      "name": "checkOwner",
      "outputs": [
        {
          "internalType": "address",
          "name": "",
          "type": "address"
        }
      ],
      "stateMutability": "view",
      "type": "function"
    },
    {
      "inputs": [
        {
          "internalType": "address",
          "name": "loanFactory",
          "type": "address"
        },
        {
          "internalType": "address",
          "name": "loanRouter",
          "type": "address"
        },
        {
          "internalType": "address",
          "name": "recipientRouter",
          "type": "address"
        },
        {
          "internalType": "address",
          "name": "token0ID",
          "type": "address"
        },
        {
          "internalType": "address",
          "name": "token1ID",
          "type": "address"
        },
        {
          "internalType": "uint256",
          "name": "amount0In",
          "type": "uint256"
        },
        {
          "internalType": "uint256",
          "name": "amount1Out",
          "type": "uint256"
        },
        {
          "internalType": "uint256",
          "name": "amountToRepay",
          "type": "uint256"
        }
      ],
      "name": "flashSwap",
      "outputs": [],
      "stateMutability": "nonpayable",
      "type": "function"
    },
    {
      "inputs": [
        {
          "internalType": "address",
          "name": "_sender",
          "type": "address"
        },
        {
          "internalType": "uint256",
          "name": "_amount0",
          "type": "uint256"
        },
        {
          "internalType": "uint256",
          "name": "_amount1",
          "type": "uint256"
        },
        {
          "internalType": "bytes",
          "name": "_data",
          "type": "bytes"
        }
      ],
      "name": "uniswapV2Call",
      "outputs": [],
      "stateMutability": "nonpayable",
      "type": "function"
    }
  ],
  "bytecode": "0x608060405234801561001057600080fd5b5060405161150738038061150783398101604081905261002f91610054565b600080546001600160a01b0319166001600160a01b0392909216919091179055610084565b60006020828403121561006657600080fd5b81516001600160a01b038116811461007d57600080fd5b9392505050565b611474806100936000396000f3fe608060405234801561001057600080fd5b50600436106100415760003560e01c806310d1e85c14610046578063cdbce03d1461005b578063de60dce41461007a575b600080fd5b61005961005436600461102e565b61008d565b005b600054604080516001600160a01b039092168252519081900360200190f35b6100596100883660046110c4565b6105cf565b6040805160028082526060820183526000926020830190803683370190505090506000808080806100c087890189611164565b94509450945094509450336001600160a01b0316630dfe16816040518163ffffffff1660e01b8152600401602060405180830381865afa158015610108573d6000803e3d6000fd5b505050506040513d601f19601f8201168201806040525081019061012c91906111bf565b8660008151811061013f5761013f6111e3565b60200260200101906001600160a01b031690816001600160a01b031681525050336001600160a01b031663d21220a76040518163ffffffff1660e01b8152600401602060405180830381865afa15801561019d573d6000803e3d6000fd5b505050506040513d601f19601f820116820180604052508101906101c191906111bf565b866001815181106101d4576101d46111e3565b60200260200101906001600160a01b031690816001600160a01b031681525050846001600160a01b031663e6a4390587600081518110610216576102166111e3565b602002602001015188600181518110610231576102316111e3565b60200260200101516040518363ffffffff1660e01b815260040161026b9291906001600160a01b0392831681529116602082015260400190565b602060405180830381865afa158015610288573d6000803e3d6000fd5b505050506040513d601f19601f820116820180604052508101906102ac91906111bf565b600180546001600160a01b0319166001600160a01b0392909216918217905533146103145760405162461bcd60e51b8152602060048201526013602482015272115c9c9bdc8e88155b985d5d1a1bdc9a5e9959606a1b60448201526064015b60405180910390fd5b6001600160a01b038b1630146103605760405162461bcd60e51b815260206004820152601160248201527022b93937b91d102737ba1039b2b73232b960791b604482015260640161030b565b89158061036b575088155b6103b05760405162461bcd60e51b81526020600482015260166024820152754572726f723a20496e76616c696420616d6f756e747360501b604482015260640161030b565b6000866000815181106103c5576103c56111e3565b602002602001015190506000876001815181106103e4576103e46111e3565b602090810291909101015160405163095ea7b360e01b81526001600160a01b038781166004830152602482018f90529192509083169063095ea7b3906044016020604051808303816000875af1158015610442573d6000803e3d6000fd5b505050506040513d601f19601f8201168201806040525081019061046691906111f9565b5060006104778d85878a8a8e61084d565b905060008051602061141f833981519152816040516104d091906040808252601e908201527f746f74616c207265636569766564206166746572207061796d656e743a2000006060820152602081019190915260800190565b60405180910390a16000546040516370a0823160e01b81523060048201526001600160a01b038481169263a9059cbb9291169083906370a0823190602401602060405180830381865afa15801561052b573d6000803e3d6000fd5b505050506040513d601f19601f8201168201806040525081019061054f919061121b565b6040516001600160e01b031960e085901b1681526001600160a01b03909216600483015260248201526044016020604051808303816000875af115801561059a573d6000803e3d6000fd5b505050506040513d601f19601f820116820180604052508101906105be91906111f9565b505050505050505050505050505050565b6000546001600160a01b0316331461063a5760405162461bcd60e51b815260206004820152602860248201527f4572726f723a204f6e6c79206f776e65722063616e2063616c6c207468697320604482015267333ab731ba34b7b760c11b606482015260840161030b565b60405163e6a4390560e01b81526001600160a01b038681166004830152858116602483015289169063e6a4390590604401602060405180830381865afa158015610688573d6000803e3d6000fd5b505050506040513d601f19601f820116820180604052508101906106ac91906111bf565b600180546001600160a01b0319166001600160a01b039290921691821790556107175760405162461bcd60e51b815260206004820152601a60248201527f4572726f723a205061697220646f6573206e6f74206578697374000000000000604482015260640161030b565b604080516001600160a01b03808b166020830152808a169282019290925290871660608201526080810183905260a0810182905260009060c00160408051808303601f190181529082905260015463095ea7b360e01b83526001600160a01b0390811660048401526024830187905290925087169063095ea7b3906044016020604051808303816000875af11580156107b4573d6000803e3d6000fd5b505050506040513d601f19601f820116820180604052508101906107d891906111f9565b5060015460405163022c0d9f60e01b81526001600160a01b039091169063022c0d9f9061081090879060009030908790600401611234565b600060405180830381600087803b15801561082a57600080fd5b505af115801561083e573d6000803e3d6000fd5b50505050505050505050505050565b60008082600081518110610863576108636111e3565b60200260200101519050600083600181518110610882576108826111e3565b6020026020010151905060004261012c61089c91906112a0565b60405163095ea7b360e01b81526001600160a01b038881166004830152602482018d90529192509084169063095ea7b3906044016020604051808303816000875af11580156108ef573d6000803e3d6000fd5b505050506040513d601f19601f8201168201806040525081019061091391906111f9565b5060006109218b8988610e80565b905060008051602061141f8339815191528b60405161096791906040808252600a90820152691b1bd85b905b5bdd5b9d60b21b6060820152602081019190915260800190565b60405180910390a16040516370a0823160e01b815230600482015260008051602061141f833981519152906001600160a01b038616906370a0823190602401602060405180830381865afa1580156109c3573d6000803e3d6000fd5b505050506040513d601f19601f820116820180604052508101906109e7919061121b565b604051610a1f91906040808252600e908201526d746f6b656e302062616c616e636560901b6060820152602081019190915260800190565b60405180910390a160008051602061141f83398151915281600081518110610a4957610a496111e3565b6020026020010151604051610a809190604080825260059082015264726570617960d81b6060820152602081019190915260800190565b60405180910390a16040516338ed173960e01b81526001600160a01b038816906338ed173990610abc908e908e908b903090899060040161130b565b6000604051808303816000875af1158015610adb573d6000803e3d6000fd5b505050506040513d6000823e601f3d908101601f19168201604052610b039190810190611347565b600181518110610b1557610b156111e3565b6020026020010151945060008051602061141f83398151915289604051610b6b9190604080825260129082015271195e1c1958dd195908185b5bdd5b9d13dd5d60721b6060820152602081019190915260800190565b60405180910390a1604080518181526010818301526f1858dd1d585b08185b5bdd5b9d13dd5d60821b606082015260208101879052905160008051602061141f8339815191529181900360800190a16040516370a0823160e01b815230600482015260008051602061141f833981519152906001600160a01b038516906370a0823190602401602060405180830381865afa158015610c0e573d6000803e3d6000fd5b505050506040513d601f19601f82011682018060405250810190610c32919061121b565b604051610c6a91906040808252600e908201526d746f6b656e312062616c616e636560901b6060820152602081019190915260800190565b60405180910390a1826001600160a01b031663095ea7b33383600081518110610c9557610c956111e3565b60200260200101516040518363ffffffff1660e01b8152600401610cce9291906001600160a01b03929092168252602082015260400190565b6020604051808303816000875af1158015610ced573d6000803e3d6000fd5b505050506040513d601f19601f82011682018060405250810190610d1191906111f9565b50826001600160a01b03166323b872dd303384600081518110610d3657610d366111e3565b60209081029190910101516040516001600160e01b031960e086901b1681526001600160a01b03938416600482015292909116602483015260448201526064016020604051808303816000875af1158015610d95573d6000803e3d6000fd5b505050506040513d601f19601f82011682018060405250810190610db991906111f9565b506040516370a0823160e01b815230600482015260008051602061141f833981519152906001600160a01b038516906370a0823190602401602060405180830381865afa158015610e0e573d6000803e3d6000fd5b505050506040513d601f19601f82011682018060405250810190610e32919061121b565b604051610e6a91906040808252600e908201526d746f6b656e312062616c616e636560901b6060820152602081019190915260800190565b60405180910390a1505050509695505050505050565b6060336001600160a01b031663d21220a76040518163ffffffff1660e01b8152600401602060405180830381865afa158015610ec0573d6000803e3d6000fd5b505050506040513d601f19601f82011682018060405250810190610ee491906111bf565b82600081518110610ef757610ef76111e3565b60200260200101906001600160a01b031690816001600160a01b031681525050336001600160a01b0316630dfe16816040518163ffffffff1660e01b8152600401602060405180830381865afa158015610f55573d6000803e3d6000fd5b505050506040513d601f19601f82011682018060405250810190610f7991906111bf565b82600181518110610f8c57610f8c6111e3565b6001600160a01b0392831660209182029290920101526040516307c0329d60e21b815290841690631f00ca7490610fc99087908690600401611405565b600060405180830381865afa158015610fe6573d6000803e3d6000fd5b505050506040513d6000823e601f3d908101601f1916820160405261100e9190810190611347565b949350505050565b6001600160a01b038116811461102b57600080fd5b50565b60008060008060006080868803121561104657600080fd5b853561105181611016565b94506020860135935060408601359250606086013567ffffffffffffffff8082111561107c57600080fd5b818801915088601f83011261109057600080fd5b81358181111561109f57600080fd5b8960208285010111156110b157600080fd5b9699959850939650602001949392505050565b600080600080600080600080610100898b0312156110e157600080fd5b88356110ec81611016565b975060208901356110fc81611016565b9650604089013561110c81611016565b9550606089013561111c81611016565b9450608089013561112c81611016565b979a969950949793969560a0850135955060c08501359460e001359350915050565b634e487b7160e01b600052604160045260246000fd5b600080600080600060a0868803121561117c57600080fd5b853561118781611016565b9450602086013561119781611016565b935060408601356111a781611016565b94979396509394606081013594506080013592915050565b6000602082840312156111d157600080fd5b81516111dc81611016565b9392505050565b634e487b7160e01b600052603260045260246000fd5b60006020828403121561120b57600080fd5b815180151581146111dc57600080fd5b60006020828403121561122d57600080fd5b5051919050565b84815260006020858184015260018060a01b038516604084015260806060840152835180608085015260005b8181101561127c5785810183015185820160a001528201611260565b50600060a0828601015260a0601f19601f8301168501019250505095945050505050565b808201808211156112c157634e487b7160e01b600052601160045260246000fd5b92915050565b600081518084526020808501945080840160005b838110156113005781516001600160a01b0316875295820195908201906001016112db565b509495945050505050565b85815284602082015260a06040820152600061132a60a08301866112c7565b6001600160a01b0394909416606083015250608001529392505050565b6000602080838503121561135a57600080fd5b825167ffffffffffffffff8082111561137257600080fd5b818501915085601f83011261138657600080fd5b8151818111156113985761139861114e565b8060051b604051601f19603f830116810181811085821117156113bd576113bd61114e565b6040529182528482019250838101850191888311156113db57600080fd5b938501935b828510156113f9578451845293850193928501926113e0565b98975050505050505050565b82815260406020820152600061100e60408301846112c756fead6d919b7ec4232672c140fb1bd1066ee1f675da8955cb2f3b3c90351398c202a2646970667358221220f109a4e3ea13da31b74852b280c8398bed2ae57f24b1f6387727fd9ea596894c64736f6c63430008130033",
  "linkReferences": {},
  "deployedLinkReferences": {}
}