{
  "_format": "hh-sol-artifact-1",
  "contractName": "flashMulti",
  "sourceName": "contracts/v2/flashMulti.sol",
  "abi": [
    {
      "inputs": [
        {
          "internalType": "address",
          "name": "_owner",
          "type": "address"
        }
      ],
      "stateMutability": "nonpayable",
      "type": "constructor"
    },
    {
      "anonymous": false,
      "inputs": [
        {
          "indexed": false,
          "internalType": "string",
          "name": "message",
          "type": "string"
        }
      ],
      "name": "log",
      "type": "event"
    },
    {
      "anonymous": false,
      "inputs": [
        {
          "indexed": false,
          "internalType": "string",
          "name": "message",
          "type": "string"
        },
        {
          "indexed": false,
          "internalType": "address",
          "name": "val",
          "type": "address"
        }
      ],
      "name": "logAddress",
      "type": "event"
    },
    {
      "anonymous": false,
      "inputs": [
        {
          "indexed": false,
          "internalType": "string",
          "name": "message",
          "type": "string"
        },
        {
          "indexed": false,
          "internalType": "uint256",
          "name": "val",
          "type": "uint256"
        }
      ],
      "name": "logValue",
      "type": "event"
    },
    {
      "inputs": [],
      "name": "checkOwner",
      "outputs": [
        {
          "internalType": "address",
          "name": "",
          "type": "address"
        }
      ],
      "stateMutability": "view",
      "type": "function"
    },
    {
      "inputs": [
        {
          "internalType": "address",
          "name": "loanFactory",
          "type": "address"
        },
        {
          "internalType": "address",
          "name": "loanRouter",
          "type": "address"
        },
        {
          "internalType": "address",
          "name": "recipientRouter",
          "type": "address"
        },
        {
          "internalType": "address",
          "name": "token0ID",
          "type": "address"
        },
        {
          "internalType": "address",
          "name": "token1ID",
          "type": "address"
        },
        {
          "internalType": "uint256",
          "name": "amount0In",
          "type": "uint256"
        },
        {
          "internalType": "uint256",
          "name": "amount1Out",
          "type": "uint256"
        },
        {
          "internalType": "uint256",
          "name": "amountToRepay",
          "type": "uint256"
        }
      ],
      "name": "flashSwap",
      "outputs": [],
      "stateMutability": "nonpayable",
      "type": "function"
    },
    {
      "inputs": [],
      "name": "getK",
      "outputs": [
        {
          "internalType": "uint256",
          "name": "k",
          "type": "uint256"
        }
      ],
      "stateMutability": "view",
      "type": "function"
    },
    {
      "inputs": [],
      "name": "owner",
      "outputs": [
        {
          "internalType": "address",
          "name": "",
          "type": "address"
        }
      ],
      "stateMutability": "view",
      "type": "function"
    },
    {
      "inputs": [
        {
          "internalType": "address",
          "name": "sender",
          "type": "address"
        },
        {
          "internalType": "uint256",
          "name": "amount0",
          "type": "uint256"
        },
        {
          "internalType": "uint256",
          "name": "amount1",
          "type": "uint256"
        },
        {
          "internalType": "bytes",
          "name": "data",
          "type": "bytes"
        }
      ],
      "name": "uniswapV2Call",
      "outputs": [],
      "stateMutability": "nonpayable",
      "type": "function"
    }
  ],
  "bytecode": "0x608060405234801561001057600080fd5b5060405161170838038061170883398101604081905261002f91610054565b600080546001600160a01b0319166001600160a01b0392909216919091179055610084565b60006020828403121561006657600080fd5b81516001600160a01b038116811461007d57600080fd5b9392505050565b611675806100936000396000f3fe608060405234801561001057600080fd5b50600436106100575760003560e01c806310d1e85c1461005c5780638da5cb5b14610071578063cdbce03d146100a1578063de60dce4146100b2578063ee39e7a0146100c5575b600080fd5b61006f61006a366004611188565b6100db565b005b600054610084906001600160a01b031681565b6040516001600160a01b0390911681526020015b60405180910390f35b6000546001600160a01b0316610084565b61006f6100c036600461121e565b61061d565b6100cd61089b565b604051908152602001610098565b60408051600280825260608201835260009260208301908036833701905050905060008080808061010e878901896112be565b94509450945094509450336001600160a01b0316630dfe16816040518163ffffffff1660e01b8152600401602060405180830381865afa158015610156573d6000803e3d6000fd5b505050506040513d601f19601f8201168201806040525081019061017a9190611319565b8660008151811061018d5761018d61133d565b60200260200101906001600160a01b031690816001600160a01b031681525050336001600160a01b031663d21220a76040518163ffffffff1660e01b8152600401602060405180830381865afa1580156101eb573d6000803e3d6000fd5b505050506040513d601f19601f8201168201806040525081019061020f9190611319565b866001815181106102225761022261133d565b60200260200101906001600160a01b031690816001600160a01b031681525050846001600160a01b031663e6a43905876000815181106102645761026461133d565b60200260200101518860018151811061027f5761027f61133d565b60200260200101516040518363ffffffff1660e01b81526004016102b99291906001600160a01b0392831681529116602082015260400190565b602060405180830381865afa1580156102d6573d6000803e3d6000fd5b505050506040513d601f19601f820116820180604052508101906102fa9190611319565b600180546001600160a01b0319166001600160a01b0392909216918217905533146103625760405162461bcd60e51b8152602060048201526013602482015272115c9c9bdc8e88155b985d5d1a1bdc9a5e9959606a1b60448201526064015b60405180910390fd5b6001600160a01b038b1630146103ae5760405162461bcd60e51b815260206004820152601160248201527022b93937b91d102737ba1039b2b73232b960791b6044820152606401610359565b8915806103b9575088155b6103fe5760405162461bcd60e51b81526020600482015260166024820152754572726f723a20496e76616c696420616d6f756e747360501b6044820152606401610359565b6000866000815181106104135761041361133d565b602002602001015190506000876001815181106104325761043261133d565b602090810291909101015160405163095ea7b360e01b81526001600160a01b038781166004830152602482018f90529192509083169063095ea7b3906044016020604051808303816000875af1158015610490573d6000803e3d6000fd5b505050506040513d601f19601f820116820180604052508101906104b49190611353565b5060006104c58d85878a8a8e61093a565b90506000805160206116208339815191528160405161051e91906040808252601e908201527f746f74616c207265636569766564206166746572207061796d656e743a2000006060820152602081019190915260800190565b60405180910390a16000546040516370a0823160e01b81523060048201526001600160a01b038481169263a9059cbb9291169083906370a0823190602401602060405180830381865afa158015610579573d6000803e3d6000fd5b505050506040513d601f19601f8201168201806040525081019061059d9190611375565b6040516001600160e01b031960e085901b1681526001600160a01b03909216600483015260248201526044016020604051808303816000875af11580156105e8573d6000803e3d6000fd5b505050506040513d601f19601f8201168201806040525081019061060c9190611353565b505050505050505050505050505050565b6000546001600160a01b031633146106885760405162461bcd60e51b815260206004820152602860248201527f4572726f723a204f6e6c79206f776e65722063616e2063616c6c207468697320604482015267333ab731ba34b7b760c11b6064820152608401610359565b60405163e6a4390560e01b81526001600160a01b038681166004830152858116602483015289169063e6a4390590604401602060405180830381865afa1580156106d6573d6000803e3d6000fd5b505050506040513d601f19601f820116820180604052508101906106fa9190611319565b600180546001600160a01b0319166001600160a01b039290921691821790556107655760405162461bcd60e51b815260206004820152601a60248201527f4572726f723a205061697220646f6573206e6f742065786973740000000000006044820152606401610359565b604080516001600160a01b03808b166020830152808a169282019290925290871660608201526080810183905260a0810182905260009060c00160408051808303601f190181529082905260015463095ea7b360e01b83526001600160a01b0390811660048401526024830187905290925087169063095ea7b3906044016020604051808303816000875af1158015610802573d6000803e3d6000fd5b505050506040513d601f19601f820116820180604052508101906108269190611353565b5060015460405163022c0d9f60e01b81526001600160a01b039091169063022c0d9f9061085e9087906000903090879060040161138e565b600060405180830381600087803b15801561087857600080fd5b505af115801561088c573d6000803e3d6000fd5b50505050505050505050505050565b6000806000600160009054906101000a90046001600160a01b03166001600160a01b0316630902f1ac6040518163ffffffff1660e01b8152600401606060405180830381865afa1580156108f3573d6000803e3d6000fd5b505050506040513d601f19601f820116820180604052508101906109179190611416565b5090925090506109336001600160701b03808416908316610f6d565b9250505090565b600080826000815181106109505761095061133d565b6020026020010151905060008360018151811061096f5761096f61133d565b6020026020010151905060004261012c610989919061147c565b60405163095ea7b360e01b81526001600160a01b038881166004830152602482018d90529192509084169063095ea7b3906044016020604051808303816000875af11580156109dc573d6000803e3d6000fd5b505050506040513d601f19601f82011682018060405250810190610a009190611353565b506000610a0e8b8988610fda565b90506000805160206116208339815191528b604051610a5491906040808252600a90820152691b1bd85b905b5bdd5b9d60b21b6060820152602081019190915260800190565b60405180910390a16040516370a0823160e01b8152306004820152600080516020611620833981519152906001600160a01b038616906370a0823190602401602060405180830381865afa158015610ab0573d6000803e3d6000fd5b505050506040513d601f19601f82011682018060405250810190610ad49190611375565b604051610b0c91906040808252600e908201526d746f6b656e302062616c616e636560901b6060820152602081019190915260800190565b60405180910390a160008051602061162083398151915281600081518110610b3657610b3661133d565b6020026020010151604051610b6d9190604080825260059082015264726570617960d81b6060820152602081019190915260800190565b60405180910390a16040516338ed173960e01b81526001600160a01b038816906338ed173990610ba9908e908e908b90309089906004016114d3565b6000604051808303816000875af1158015610bc8573d6000803e3d6000fd5b505050506040513d6000823e601f3d908101601f19168201604052610bf0919081019061150f565b600181518110610c0257610c0261133d565b6020026020010151945060008051602061162083398151915289604051610c589190604080825260129082015271195e1c1958dd195908185b5bdd5b9d13dd5d60721b6060820152602081019190915260800190565b60405180910390a1604080518181526010818301526f1858dd1d585b08185b5bdd5b9d13dd5d60821b60608201526020810187905290516000805160206116208339815191529181900360800190a16040516370a0823160e01b8152306004820152600080516020611620833981519152906001600160a01b038516906370a0823190602401602060405180830381865afa158015610cfb573d6000803e3d6000fd5b505050506040513d601f19601f82011682018060405250810190610d1f9190611375565b604051610d5791906040808252600e908201526d746f6b656e312062616c616e636560901b6060820152602081019190915260800190565b60405180910390a1826001600160a01b031663095ea7b33383600081518110610d8257610d8261133d565b60200260200101516040518363ffffffff1660e01b8152600401610dbb9291906001600160a01b03929092168252602082015260400190565b6020604051808303816000875af1158015610dda573d6000803e3d6000fd5b505050506040513d601f19601f82011682018060405250810190610dfe9190611353565b50826001600160a01b03166323b872dd303384600081518110610e2357610e2361133d565b60209081029190910101516040516001600160e01b031960e086901b1681526001600160a01b03938416600482015292909116602483015260448201526064016020604051808303816000875af1158015610e82573d6000803e3d6000fd5b505050506040513d601f19601f82011682018060405250810190610ea69190611353565b506040516370a0823160e01b8152306004820152600080516020611620833981519152906001600160a01b038516906370a0823190602401602060405180830381865afa158015610efb573d6000803e3d6000fd5b505050506040513d601f19601f82011682018060405250810190610f1f9190611375565b604051610f5791906040808252600e908201526d746f6b656e312062616c616e636560901b6060820152602081019190915260800190565b60405180910390a1505050509695505050505050565b6000811580610f9157508282610f8381836115cd565b9250610f8f90836115e4565b145b610fd45760405162461bcd60e51b815260206004820152601460248201527364732d6d6174682d6d756c2d6f766572666c6f7760601b6044820152606401610359565b92915050565b6060336001600160a01b031663d21220a76040518163ffffffff1660e01b8152600401602060405180830381865afa15801561101a573d6000803e3d6000fd5b505050506040513d601f19601f8201168201806040525081019061103e9190611319565b826000815181106110515761105161133d565b60200260200101906001600160a01b031690816001600160a01b031681525050336001600160a01b0316630dfe16816040518163ffffffff1660e01b8152600401602060405180830381865afa1580156110af573d6000803e3d6000fd5b505050506040513d601f19601f820116820180604052508101906110d39190611319565b826001815181106110e6576110e661133d565b6001600160a01b0392831660209182029290920101526040516307c0329d60e21b815290841690631f00ca74906111239087908690600401611606565b600060405180830381865afa158015611140573d6000803e3d6000fd5b505050506040513d6000823e601f3d908101601f19168201604052611168919081019061150f565b949350505050565b6001600160a01b038116811461118557600080fd5b50565b6000806000806000608086880312156111a057600080fd5b85356111ab81611170565b94506020860135935060408601359250606086013567ffffffffffffffff808211156111d657600080fd5b818801915088601f8301126111ea57600080fd5b8135818111156111f957600080fd5b89602082850101111561120b57600080fd5b9699959850939650602001949392505050565b600080600080600080600080610100898b03121561123b57600080fd5b883561124681611170565b9750602089013561125681611170565b9650604089013561126681611170565b9550606089013561127681611170565b9450608089013561128681611170565b979a969950949793969560a0850135955060c08501359460e001359350915050565b634e487b7160e01b600052604160045260246000fd5b600080600080600060a086880312156112d657600080fd5b85356112e181611170565b945060208601356112f181611170565b9350604086013561130181611170565b94979396509394606081013594506080013592915050565b60006020828403121561132b57600080fd5b815161133681611170565b9392505050565b634e487b7160e01b600052603260045260246000fd5b60006020828403121561136557600080fd5b8151801515811461133657600080fd5b60006020828403121561138757600080fd5b5051919050565b84815260006020858184015260018060a01b038516604084015260806060840152835180608085015260005b818110156113d65785810183015185820160a0015282016113ba565b50600060a0828601015260a0601f19601f8301168501019250505095945050505050565b80516001600160701b038116811461141157600080fd5b919050565b60008060006060848603121561142b57600080fd5b611434846113fa565b9250611442602085016113fa565b9150604084015163ffffffff8116811461145b57600080fd5b809150509250925092565b634e487b7160e01b600052601160045260246000fd5b80820180821115610fd457610fd4611466565b600081518084526020808501945080840160005b838110156114c85781516001600160a01b0316875295820195908201906001016114a3565b509495945050505050565b85815284602082015260a0604082015260006114f260a083018661148f565b6001600160a01b0394909416606083015250608001529392505050565b6000602080838503121561152257600080fd5b825167ffffffffffffffff8082111561153a57600080fd5b818501915085601f83011261154e57600080fd5b815181811115611560576115606112a8565b8060051b604051601f19603f83011681018181108582111715611585576115856112a8565b6040529182528482019250838101850191888311156115a357600080fd5b938501935b828510156115c1578451845293850193928501926115a8565b98975050505050505050565b8082028115828204841417610fd457610fd4611466565b60008261160157634e487b7160e01b600052601260045260246000fd5b500490565b828152604060208201526000611168604083018461148f56fead6d919b7ec4232672c140fb1bd1066ee1f675da8955cb2f3b3c90351398c202a2646970667358221220cd58a267d0829f79db92e7fd492890a7cd27d477b893be1fbb4639d62c39d02164736f6c63430008130033",
  "linkReferences": {},
  "deployedLinkReferences": {}
}