{
  "_format": "hh-sol-artifact-1",
  "contractName": "flashMultiTest",
  "sourceName": "contracts/v2/flashMultiTest.sol",
  "abi": [
    {
      "inputs": [
        {
          "internalType": "address",
          "name": "_owner",
          "type": "address"
        }
      ],
      "stateMutability": "nonpayable",
      "type": "constructor"
    },
    {
      "anonymous": false,
      "inputs": [
        {
          "indexed": false,
          "internalType": "string",
          "name": "message",
          "type": "string"
        }
      ],
      "name": "log",
      "type": "event"
    },
    {
      "anonymous": false,
      "inputs": [
        {
          "indexed": false,
          "internalType": "string",
          "name": "message",
          "type": "string"
        },
        {
          "indexed": false,
          "internalType": "address",
          "name": "val",
          "type": "address"
        }
      ],
      "name": "logAddress",
      "type": "event"
    },
    {
      "anonymous": false,
      "inputs": [
        {
          "indexed": false,
          "internalType": "string",
          "name": "message",
          "type": "string"
        },
        {
          "indexed": false,
          "internalType": "uint256",
          "name": "val",
          "type": "uint256"
        }
      ],
      "name": "logValue",
      "type": "event"
    },
    {
      "inputs": [],
      "name": "checkOwner",
      "outputs": [
        {
          "internalType": "address",
          "name": "",
          "type": "address"
        }
      ],
      "stateMutability": "view",
      "type": "function"
    },
    {
      "inputs": [
        {
          "internalType": "address",
          "name": "loanFactory",
          "type": "address"
        },
        {
          "internalType": "address",
          "name": "loanRouter",
          "type": "address"
        },
        {
          "internalType": "address",
          "name": "recipientRouter",
          "type": "address"
        },
        {
          "internalType": "address",
          "name": "token0ID",
          "type": "address"
        },
        {
          "internalType": "address",
          "name": "token1ID",
          "type": "address"
        },
        {
          "internalType": "uint256",
          "name": "amount0In",
          "type": "uint256"
        },
        {
          "internalType": "uint256",
          "name": "amount1Out",
          "type": "uint256"
        },
        {
          "internalType": "uint256",
          "name": "amountToRepay",
          "type": "uint256"
        }
      ],
      "name": "flashSwap",
      "outputs": [],
      "stateMutability": "nonpayable",
      "type": "function"
    },
    {
      "inputs": [
        {
          "internalType": "uint256",
          "name": "loanAmount",
          "type": "uint256"
        },
        {
          "internalType": "uint256",
          "name": "amount1Repay",
          "type": "uint256"
        },
        {
          "internalType": "uint256",
          "name": "amount1Out",
          "type": "uint256"
        },
        {
          "internalType": "address",
          "name": "loanRouter",
          "type": "address"
        },
        {
          "internalType": "address",
          "name": "recipientRouter",
          "type": "address"
        },
        {
          "internalType": "address[]",
          "name": "path",
          "type": "address[]"
        }
      ],
      "name": "getAmounts",
      "outputs": [
        {
          "internalType": "uint256",
          "name": "amountOut",
          "type": "uint256"
        }
      ],
      "stateMutability": "nonpayable",
      "type": "function"
    },
    {
      "inputs": [],
      "name": "getK",
      "outputs": [
        {
          "internalType": "uint256",
          "name": "k",
          "type": "uint256"
        }
      ],
      "stateMutability": "view",
      "type": "function"
    },
    {
      "inputs": [
        {
          "internalType": "address",
          "name": "_sender",
          "type": "address"
        },
        {
          "internalType": "uint256",
          "name": "_amount0",
          "type": "uint256"
        },
        {
          "internalType": "uint256",
          "name": "_amount1",
          "type": "uint256"
        },
        {
          "internalType": "bytes",
          "name": "_data",
          "type": "bytes"
        }
      ],
      "name": "uniswapV2Call",
      "outputs": [],
      "stateMutability": "nonpayable",
      "type": "function"
    }
  ],
  "bytecode": "0x608060405234801561001057600080fd5b506040516200246b3803806200246b83398101604081905261003191610056565b600080546001600160a01b0319166001600160a01b0392909216919091179055610086565b60006020828403121561006857600080fd5b81516001600160a01b038116811461007f57600080fd5b9392505050565b6123d580620000966000396000f3fe608060405234801561001057600080fd5b50600436106100575760003560e01c806310d1e85c1461005c578063601a9e6214610071578063cdbce03d14610097578063de60dce4146100b2578063ee39e7a0146100c5575b600080fd5b61006f61006a366004611d0c565b6100cd565b005b61008461007f366004611e0d565b610b0a565b6040519081526020015b60405180910390f35b6000546040516001600160a01b03909116815260200161008e565b61006f6100c0366004611eef565b611166565b610084611910565b610103604051806040016040528060158152602001741d5b9a5cddd85c158c90d85b1b08115b9d195c9959605a1b8152506119af565b604080516002808252606082018352600092602083019080368337019050509050610157604051806040016040528060128152602001714465636f64696e67204c6f616e204461746160701b8152506119af565b60008080808061016987890189611f79565b945094509450945094506101a560405180604001604052806011815260200170131bd85b8811185d1848111958dbd91959607a1b8152506119af565b6101d46040518060400160405280600d81526020016c03637b0b72330b1ba37b93c9d1609d1b815250856119f5565b336001600160a01b0316630dfe16816040518163ffffffff1660e01b8152600401602060405180830381865afa158015610212573d6000803e3d6000fd5b505050506040513d601f19601f820116820180604052508101906102369190611fd4565b8660008151811061024957610249611ff8565b60200260200101906001600160a01b031690816001600160a01b031681525050336001600160a01b031663d21220a76040518163ffffffff1660e01b8152600401602060405180830381865afa1580156102a7573d6000803e3d6000fd5b505050506040513d601f19601f820116820180604052508101906102cb9190611fd4565b866001815181106102de576102de611ff8565b60200260200101906001600160a01b031690816001600160a01b031681525050846001600160a01b031663e6a439058760008151811061032057610320611ff8565b60200260200101518860018151811061033b5761033b611ff8565b60200260200101516040518363ffffffff1660e01b81526004016103759291906001600160a01b0392831681529116602082015260400190565b602060405180830381865afa158015610392573d6000803e3d6000fd5b505050506040513d601f19601f820116820180604052508101906103b69190611fd4565b600180546001600160a01b0319166001600160a01b039290921691909117905560006103e0611910565b90506104216040518060400160405280601781526020017f556e6973776170204b204265666f726520537761703a2000000000000000000081525082611a3e565b60408051808201909152601281527102637b0b72837b7b61030b2323932b9b99d160751b602082015260015461046091906001600160a01b03166119f5565b6104926040518060400160405280601081526020016f02a30b933b2ba1030b2323932b9b99d160851b815250306119f5565b6104c860405180604001604052806014815260200173036b9b39739b2b73232b91030b2323932b9b99d160651b815250336119f5565b6001546001600160a01b0316331461051d5760405162461bcd60e51b8152602060048201526013602482015272115c9c9bdc8e88155b985d5d1a1bdc9a5e9959606a1b60448201526064015b60405180910390fd5b6001600160a01b038c1630146105695760405162461bcd60e51b815260206004820152601160248201527022b93937b91d102737ba1039b2b73232b960791b6044820152606401610514565b8a1580610574575089155b6105b95760405162461bcd60e51b81526020600482015260166024820152754572726f723a20496e76616c696420616d6f756e747360501b6044820152606401610514565b6000876000815181106105ce576105ce611ff8565b602002602001015190506000886001815181106105ed576105ed611ff8565b6020026020010151905061062c60405180604001604052806013815260200172020b6b7bab73a18103932b8bab2b9ba32b21d1606d1b8152508e611a3e565b6106786040518060400160405280601081526020016f02a37b5b2b7181030b2323932b9b99d160851b8152508a60008151811061066b5761066b611ff8565b60200260200101516119f5565b6106ac60405180604001604052806012815260200171020b6b7bab73a189032bc3832b1ba32b21d160751b8152508d611a3e565b6106eb6040518060400160405280601081526020016f02a37b5b2b7189030b2323932b9b99d160851b8152508a60018151811061066b5761066b611ff8565b6107756040518060600160405280602e8152602001612372602e91396040516370a0823160e01b81523060048201526001600160a01b038516906370a08231906024015b602060405180830381865afa15801561074c573d6000803e3d6000fd5b505050506040513d601f19601f82011682018060405250810190610770919061200e565b611a3e565b610796604051806060016040528060298152602001612349602991396119af565b60405163095ea7b360e01b81526001600160a01b038781166004830152602482018f905283169063095ea7b3906044016020604051808303816000875af11580156107e5573d6000803e3d6000fd5b505050506040513d601f19601f820116820180604052508101906108099190612027565b5061087460405180604001604052806012815260200171020b8383937bb32b2103a37903a3930b232960751b8152508e6040518060400160405280601d81526020017f206f6620746f6b656e30206f6e20726563697069656e74526f75746572000000815250611a83565b604080518082018252601081526f03130b630b731b2902a37b5b2b7181d160851b602082015290516370a0823160e01b81523060048201526108ca91906001600160a01b038516906370a082319060240161072f565b604080518082018252601081526f03130b630b731b2902a37b5b2b7189d160851b602082015290516370a0823160e01b815230600482015261092091906001600160a01b038416906370a082319060240161072f565b60006109308e86888b8b8f610b0a565b90506109716040518060400160405280601c81526020017f416d6f756e74206f75742061667465722072657061796d656e743a200000000081525082611a3e565b604080518082018252601781527f4e65772062616c616e6365206f6620746f6b656e313a20000000000000000000602082015290516370a0823160e01b81523060048201526109d491906001600160a01b038516906370a082319060240161072f565b6000546040516370a0823160e01b81523060048201526001600160a01b038481169263a9059cbb9291169083906370a0823190602401602060405180830381865afa158015610a27573d6000803e3d6000fd5b505050506040513d601f19601f82011682018060405250810190610a4b919061200e565b6040516001600160e01b031960e085901b1681526001600160a01b03909216600483015260248201526044016020604051808303816000875af1158015610a96573d6000803e3d6000fd5b505050506040513d601f19601f82011682018060405250810190610aba9190612027565b50610af96040518060400160405280601b81526020017f5472616e7366657272656420746f6b656e3120746f206f776e657200000000008152506119af565b505050505050505050505050505050565b6000610b3f6040518060400160405280601281526020017119d95d105b5bdd5b9d1cc8115b9d195c995960721b8152506119af565b600082600081518110610b5457610b54611ff8565b60200260200101519050600083600181518110610b7357610b73611ff8565b6020026020010151905060004361012c610b8d919061205f565b90506000610b9c8b8988611acf565b9050610bf06040518060400160405280601681526020017502932b830bcb6b2b73a1031b0b631bab630ba32b21d160551b81525082600081518110610be357610be3611ff8565b6020026020010151611a3e565b610c266040518060400160405280601481526020017302932b830bcb6b2b73a1032bc3832b1ba32b21d160651b8152508b611a3e565b610c7c60405180604001604052806009815260200168029bbb0b83834b733960bd1b8152508c6040518060400160405280601281526020017120746f6b656e3020666f7220746f6b656e3160701b815250611a83565b610cbb6040518060400160405280601a81526020017f4d494e494d554d20416d6f756e74312065787065637465643a200000000000008152508b611a3e565b6040516338ed173960e01b81526001600160a01b038816906338ed173990610cef908e908d908b90309089906004016120b6565b6000604051808303816000875af1158015610d0e573d6000803e3d6000fd5b505050506040513d6000823e601f3d908101601f19168201604052610d3691908101906120f2565b600181518110610d4857610d48611ff8565b60200260200101519450610d826040518060400160405280600f81526020016e53776170203120636f6d706c65746560881b8152506119af565b610db960405180604001604052806015815260200174020b6b7bab73a1037baba103932b1b4b2bb32b21d1605d1b81525086611a3e565b610df060405180604001604052806015815260200174020b6b7bab73a1037baba1032bc3832b1ba32b21d1605d1b8152508a611a3e565b610e276040518060400160405280601581526020017402932b830bcb6b2b73a1032bc3832b1ba32b21d1d1605d1b8152508b611a3e565b610e6b6040518060400160405280601581526020017402932b830bcb6b2b73a1031b0b631bab0ba32b21d1605d1b81525082600081518110610be357610be3611ff8565b60405163095ea7b360e01b8152336004820152602481018b90526001600160a01b0384169063095ea7b3906044016020604051808303816000875af1158015610eb8573d6000803e3d6000fd5b505050506040513d601f19601f82011682018060405250810190610edc9190612027565b50610f3460405180604001604052806012815260200171020b8383937bb32b2103a37903a3930b232960751b8152508b6040518060400160405280600a815260200169206f6620746f6b656e3160b01b815250611a83565b826001600160a01b03166323b872dd303384600081518110610f5857610f58611ff8565b60209081029190910101516040516001600160e01b031960e086901b1681526001600160a01b03938416600482015292909116602483015260448201526064016020604051808303816000875af1158015610fb7573d6000803e3d6000fd5b505050506040513d601f19601f82011682018060405250810190610fdb9190612027565b506110386040518060400160405280600b81526020016a02a3930b739b332b932b2160ad1b8152508b60405180604001604052806016815260200175081bd9881d1bdad95b8c481d1bc81b1bd85b941bdbdb60521b815250611a83565b604080518082018252601081526f03130b630b731b2902a37b5b2b7181d160851b602082015290516370a0823160e01b815230600482015261108e91906001600160a01b038716906370a082319060240161072f565b604080518082018252601081526f03130b630b731b2902a37b5b2b7189d160851b602082015290516370a0823160e01b81523060048201526110e491906001600160a01b038616906370a082319060240161072f565b60006110ee611910565b90506111286040518060400160405280601681526020017502ab734b9bbb0b810259020b33a32b91029bbb0b81d160551b81525082611a3e565b6111576040518060400160405280600e81526020016d526570617920636f6d706c65746560901b8152506119af565b50505050509695505050505050565b6111a46040518060400160405280601f81526020017f436f6e747261637420666c6173684d756c74695465737420456e7465726564008152506119af565b604080518082019091526007815266027bbb732b91d160cd1b60208201526000546111d891906001600160a01b03166119f5565b6112086040518060400160405280600e81526020016d02637b0b7102330b1ba37b93c9d160951b815250896119f5565b6112376040518060400160405280600d81526020016c02637b0b7102937baba32b91d1609d1b815250886119f5565b61126b6040518060400160405280601281526020017102932b1b4b834b2b73a102937baba32b91d160751b815250876119f5565b6112956040518060400160405280600881526020016702a37b5b2b7181d160c51b815250866119f5565b6112bf6040518060400160405280600881526020016702a37b5b2b7189d160c51b815250856119f5565b6112ec6040518060400160405280600b81526020016a020b6b7bab73a1824b71d160ad1b81525084611a3e565b61131a6040518060400160405280600c81526020016b020b6b7bab73a18a7baba1d160a51b81525083611a3e565b61134b6040518060400160405280600f81526020016e020b6b7bab73a2a37a932b830bc9d1608d1b81525082611a3e565b6000546001600160a01b031633146113b65760405162461bcd60e51b815260206004820152602860248201527f4572726f723a204f6e6c79206f776e65722063616e2063616c6c207468697320604482015267333ab731ba34b7b760c11b6064820152608401610514565b60405163e6a4390560e01b81526001600160a01b038681166004830152858116602483015289169063e6a4390590604401602060405180830381865afa158015611404573d6000803e3d6000fd5b505050506040513d601f19601f820116820180604052508101906114289190611fd4565b600180546001600160a01b0319166001600160a01b0392909216919091179055604080518082019091526015815274030b6b7bab73a1824b7103932b8bab2b9ba32b21d1605d1b602082015261147e9084611a3e565b6114b560405180604001604052806015815260200174030b6b7bab73a18a7baba1032bc3832b1ba32b21d1605d1b81525083611a3e565b604080518082018252601e81527f436f6e74726163742042616c616e6365204265666f726520537761703a200000602082015290516370a0823160e01b815230600482015261151891906001600160a01b038816906370a082319060240161072f565b60408051808201909152600e81526d02830b4b91030b2323932b9b99d160951b602082015260015461155391906001600160a01b03166119f5565b6001546001600160a01b03166115ab5760405162461bcd60e51b815260206004820152601a60248201527f4572726f723a205061697220646f6573206e6f742065786973740000000000006044820152606401610514565b604080516001600160a01b038a8116602083015289811682840152881660608201526080810184905260a0808201849052825180830390910181526101008201909252600c60c082019081526b11185d1848195b98dbd9195960a21b60e090920191909152611619906119af565b60015460405163095ea7b360e01b81526001600160a01b039182166004820152602481018690529087169063095ea7b3906044016020604051808303816000875af115801561166c573d6000803e3d6000fd5b505050506040513d601f19601f820116820180604052508101906116909190612027565b50600084116117075760405162461bcd60e51b815260206004820152603a60248201527f4572726f723a20496e76616c696420616d6f756e7430496e3a20616d6f756e7460448201527f30496e206d7573742062652067726561746572207468616e20300000000000006064820152608401610514565b60015460405163022c0d9f60e01b81526001600160a01b039091169063022c0d9f9061173e908790600090309087906004016121c9565b600060405180830381600087803b15801561175857600080fd5b505af115801561176c573d6000803e3d6000fd5b5050604080518082018252601e81527f4e657720436f6e74726163742042616c616e63652028546f6b656e30293a0000602082015290516370a0823160e01b81523060048201526117d493509091506001600160a01b038916906370a082319060240161072f565b604080518082018252601e81527f4e657720436f6e74726163742042616c616e63652028546f6b656e31293a0000602082015290516370a0823160e01b815230600482015261183791906001600160a01b038816906370a082319060240161072f565b604080518082018252601b81527f4e6577204f776e65722042616c616e63652028546f6b656e30293a0000000000602082015260005491516370a0823160e01b81526001600160a01b03928316600482015261189e928916906370a082319060240161072f565b604080518082018252601b81527f4e6577204f776e65722042616c616e63652028546f6b656e31293a0000000000602082015260005491516370a0823160e01b81526001600160a01b039283166004820152611905928816906370a082319060240161072f565b505050505050505050565b6000806000600160009054906101000a90046001600160a01b03166001600160a01b0316630902f1ac6040518163ffffffff1660e01b8152600401606060405180830381865afa158015611968573d6000803e3d6000fd5b505050506040513d601f19601f8201168201806040525081019061198c919061221c565b5090925090506119a86001600160701b03808416908316611c65565b9250505090565b6119f2816040516024016119c3919061226c565b60408051601f198184030181529190526020810180516001600160e01b031663104c13eb60e21b179052611cd2565b50565b611a3a8282604051602401611a0b92919061227f565b60408051601f198184030181529190526020810180516001600160e01b031663319af33360e01b179052611cd2565b5050565b611a3a8282604051602401611a549291906122a9565b60408051601f198184030181529190526020810180516001600160e01b0316632d839cb360e21b179052611cd2565b611aca838383604051602401611a9b939291906122cb565b60408051601f198184030181529190526020810180516001600160e01b0316635970e08960e01b179052611cd2565b505050565b6060336001600160a01b031663d21220a76040518163ffffffff1660e01b8152600401602060405180830381865afa158015611b0f573d6000803e3d6000fd5b505050506040513d601f19601f82011682018060405250810190611b339190611fd4565b82600081518110611b4657611b46611ff8565b60200260200101906001600160a01b031690816001600160a01b031681525050336001600160a01b0316630dfe16816040518163ffffffff1660e01b8152600401602060405180830381865afa158015611ba4573d6000803e3d6000fd5b505050506040513d601f19601f82011682018060405250810190611bc89190611fd4565b82600181518110611bdb57611bdb611ff8565b6001600160a01b0392831660209182029290920101526040516307c0329d60e21b815290841690631f00ca7490611c1890879086906004016122f6565b600060405180830381865afa158015611c35573d6000803e3d6000fd5b505050506040513d6000823e601f3d908101601f19168201604052611c5d91908101906120f2565b949350505050565b6000811580611c8957508282611c7b818361230f565b9250611c879083612326565b145b611ccc5760405162461bcd60e51b815260206004820152601460248201527364732d6d6174682d6d756c2d6f766572666c6f7760601b6044820152606401610514565b92915050565b6119f28160006a636f6e736f6c652e6c6f679050600080835160208501845afa505050565b6001600160a01b03811681146119f257600080fd5b600080600080600060808688031215611d2457600080fd5b8535611d2f81611cf7565b94506020860135935060408601359250606086013567ffffffffffffffff80821115611d5a57600080fd5b818801915088601f830112611d6e57600080fd5b813581811115611d7d57600080fd5b896020828501011115611d8f57600080fd5b9699959850939650602001949392505050565b634e487b7160e01b600052604160045260246000fd5b604051601f8201601f1916810167ffffffffffffffff81118282101715611de157611de1611da2565b604052919050565b600067ffffffffffffffff821115611e0357611e03611da2565b5060051b60200190565b60008060008060008060c08789031215611e2657600080fd5b863595506020808801359550604088013594506060880135611e4781611cf7565b93506080880135611e5781611cf7565b925060a088013567ffffffffffffffff811115611e7357600080fd5b8801601f81018a13611e8457600080fd5b8035611e97611e9282611de9565b611db8565b81815260059190911b8201830190838101908c831115611eb657600080fd5b928401925b82841015611edd578335611ece81611cf7565b82529284019290840190611ebb565b80955050505050509295509295509295565b600080600080600080600080610100898b031215611f0c57600080fd5b8835611f1781611cf7565b97506020890135611f2781611cf7565b96506040890135611f3781611cf7565b95506060890135611f4781611cf7565b94506080890135611f5781611cf7565b979a969950949793969560a0850135955060c08501359460e001359350915050565b600080600080600060a08688031215611f9157600080fd5b8535611f9c81611cf7565b94506020860135611fac81611cf7565b93506040860135611fbc81611cf7565b94979396509394606081013594506080013592915050565b600060208284031215611fe657600080fd5b8151611ff181611cf7565b9392505050565b634e487b7160e01b600052603260045260246000fd5b60006020828403121561202057600080fd5b5051919050565b60006020828403121561203957600080fd5b81518015158114611ff157600080fd5b634e487b7160e01b600052601160045260246000fd5b80820180821115611ccc57611ccc612049565b600081518084526020808501945080840160005b838110156120ab5781516001600160a01b031687529582019590820190600101612086565b509495945050505050565b85815284602082015260a0604082015260006120d560a0830186612072565b6001600160a01b0394909416606083015250608001529392505050565b6000602080838503121561210557600080fd5b825167ffffffffffffffff81111561211c57600080fd5b8301601f8101851361212d57600080fd5b805161213b611e9282611de9565b81815260059190911b8201830190838101908783111561215a57600080fd5b928401925b828410156121785783518252928401929084019061215f565b979650505050505050565b6000815180845260005b818110156121a95760208185018101518683018201520161218d565b506000602082860101526020601f19601f83011685010191505092915050565b84815283602082015260018060a01b03831660408201526080606082015260006121f66080830184612183565b9695505050505050565b80516001600160701b038116811461221757600080fd5b919050565b60008060006060848603121561223157600080fd5b61223a84612200565b925061224860208501612200565b9150604084015163ffffffff8116811461226157600080fd5b809150509250925092565b602081526000611ff16020830184612183565b6040815260006122926040830185612183565b905060018060a01b03831660208301529392505050565b6040815260006122bc6040830185612183565b90508260208301529392505050565b6060815260006122de6060830186612183565b84602084015282810360408401526121f68185612183565b828152604060208201526000611c5d6040830184612072565b8082028115828204841417611ccc57611ccc612049565b60008261234357634e487b7160e01b600052601260045260246000fd5b50049056fe417070726f76696e6720726563697069656e74526f7574657220746f20747261646520746f6b656e304e657720746f6b656e302062616c616e636520286c6f616e6564293a3a3a3a3a3a3a3a3a3a3a3a3a3a3a3a3a3a20a26469706673582212206b5519300726f29d1b8cca852eee995baa40367fa7cd34c03b2ad589d2ce0bb864736f6c63430008130033",
  "linkReferences": {},
  "deployedLinkReferences": {}
}